:020000040800F2
:108000000000022071D7010841840008458400085F
:10801000498400084D8400085184000800000000D5
:10802000000000000000000000000000558400086F
:1080300059840008000000005D8400086184000885
:10804000BDD70108BDD70108BDD70108BDD70108BC
:10805000BDD70108BDD70108BDD70108BDD70108AC
:10806000BDD70108BDD70108BDD70108BDD701089C
:10807000BDD70108BDD70108BDAB0008BDD70108B9
:10808000BDD70108BDD70108BDD70108BDD701087C
:10809000BDD70108BDD70108BDD70108BDD701086C
:1080A000BDD70108BDD70108BDD70108BDD701085C
:1080B000BDD70108BDD70108BDD70108BDD701084C
:1080C000BDD70108BDD70108BDD70108BDD701083C
:1080D000BDD70108BDD70108BDD70108BDD701082C
:1080E000BDD70108BDD70108BDD70108BDD701081C
:1080F000BDD70108BDD70108BDD70108BDD701080C
:10810000BDD70108BDD70108BDD70108BDD70108FB
:10811000BDD70108BDD70108BDD70108BDD70108EB
:10812000BDD70108BDD70108BDD70108BDD70108DB
:10813000BDD70108BDD70108BDD70108BDD70108CB
:10814000BDD70108BDD70108BDD70108BDD70108BB
:10815000BDD70108BDD70108BDD70108BDD70108AB
:10816000BDD70108BDD70108BDD70108BDD701089B
:10817000BDD70108BDD70108BDD70108BDD701088B
:10818000BDD70108BDD701080000000000000000B5
:10819000844641EA000313F003036DD1403A41D312
:1081A00051F8043B40F8043B51F8043B40F8043BD1
:1081B00051F8043B40F8043B51F8043B40F8043BC1
:1081C00051F8043B40F8043B51F8043B40F8043BB1
:1081D00051F8043B40F8043B51F8043B40F8043BA1
:1081E00051F8043B40F8043B51F8043B40F8043B91
:1081F00051F8043B40F8043B51F8043B40F8043B81
:1082000051F8043B40F8043B51F8043B40F8043B70
:1082100051F8043B40F8043B51F8043B40F8043B60
:10822000403ABDD2303211D351F8043B40F8043B00
:1082300051F8043B40F8043B51F8043B40F8043B40
:1082400051F8043B40F8043B103AEDD20C3205D310
:1082500051F8043B40F8043B043AF9D2043208D008
:10826000D2071CBF11F8013B00F8013B01D30B887A
:1082700003806046704700BF082A13D38B078DD058
:1082800010F003038AD0C3F10403D21ADB071CBF2A
:1082900011F8013B00F8013B80D331F8023B20F894
:1082A000023B7BE7043AD9D3013A11F8013B00F8CD
:1082B000013BF9D20B7803704B7843708B78837055
:1082C000604670472DE9F84FDFF86C811446074689
:1082D0000D465748574900F051FB39462346404662
:1082E0002A460DF007FE41F6A813661E18F8031083
:1082F00000290CBFBA46AA46002C00F097803AF934
:10830000040BDFF838E13AF9029CDEF80470DEF87D
:108310000050DEF80830DEF80C200028B8BF4042DC
:10832000B9F1000FB8BFC9F10009411BC7EB090B38
:108330000029D4BF10461846BBF1000FD4BF144625
:108340001C4600FB01F804FB0BFC07EBEC3405EBCF
:10835000E8300AF1040106F00107751E002E63D013
:10836000DFB131F904AC31F9026CBAF1000FB8BFDA
:10837000CAF1000A002EB8BF7642C0EB0A0BC4EB6C
:108380000608BBF1000FD4BF17461F46B8F1000F17
:10839000D4BF16461E46013D3AE031F9046C31F96E
:1083A00002CC31F9048B002EB8BF7642BCF1000F2D
:1083B000B8BFCCF1000C371AC4EB0C0C002FD4BFA3
:1083C00093469B46BCF1000FD4BF92469A4631F9C2
:1083D000026C0BFB07F70AFB0CF900EBE730B8F176
:1083E000000FB8BFC8F10008002EB8BF764204EBFA
:1083F000E934C0EB080BC4EB0608BBF1000FD4BF97
:1084000017461F46B8F1000FD4BF16461E46023D60
:1084100007FB0BF906FB08F76E1C00EBE93001F1D6
:10842000040104EBE734B8D18EE81100BDE8F88F01
:108430007002002034F40120B0DA0120C8030020CB
:10844000704700BFFEE700BFFEE700BFFEE700BFCA
:10845000FEE700BF704700BF704700BF704700BF16
:10846000094810B501F084FA084B187818B1084C87
:1084700021888B0600D410BDA2880348D1B201F038
:1084800045FDA08010BD00BFFC020020DC030020E1
:1084900000100140F0B587B003A8012102F0DEFD15
:1084A0000220012114F054FF002601252A480495DA
:1084B00004A98DF815508DF817508DF814608DF8BB
:1084C000166014F05DFC4FF680734FF4E8322349D8
:1084D00000932348234B244F244C02F021FF2448CF
:1084E00000F062FC2348244900F05CF84FF0660C71
:1084F0004FF0040E1F4A1E49194B00943846C4F829
:1085000008C0C4F80CE02660666000F02FFF294622
:10851000114814F081FD811B18BF012117484FF449
:10852000FA4202F089F910B9072087F8BC00134815
:10853000134A202102F0AAF910B9072187F8BC10CC
:108540000B4A157815B10F4802F05CFB03A802F046
:108550008DFD07B0F0BD00BF0004024024040020E0
:10856000B0DA012000000010FC020020C803002047
:10857000DC03002070020020E003002024D401204E
:10858000C5820008D803002008B5FFF783FF034821
:1085900001F030FC024802F0A3FFF8E7FC020020E3
:1085A000B0DA01202DE9F84F04460D4604F120060B
:1085B00001F0F4FC04F1140002F068FB04F16C0813
:1085C000002204F15C07A561E261C7EB080046F8F0
:1085D000202B04F16003011F98456262A262E262EF
:1085E00022636263A263E263C1F3820532601146D3
:1085F0006264E26422656265A265E2653ED035B3DD
:10860000012D1FD0022D19D0032D13D0042D0DD014
:10861000052D07D0062D1CBF1A6004F16403002647
:1086200043F8046B4FF0000943F8049B4FF0000A35
:1086300043F804AB4FF0000B43F804BB4FF0000CC1
:1086400043F804CB002143F8041B984516D01A4682
:108650004FF0000E42F804EB203343F81CECC2F854
:1086600004E043F814EC43F810EC43F80CEC43F846
:1086700008EC43F804EC98457146E8D104F1850014
:1086800004F18A08C74304F186030025DFF8B4909B
:10869000E1664744434584F8485084F87850C4F86C
:1086A000749007F0070684F8805084F8815084F8AD
:1086B000825084F8835084F8845084F885503FD0E9
:1086C00036B3012E1ED0022E18D0032E12D0042E47
:1086D0000CD0052E07D0062E1CBF1D7004F1870399
:1086E000002103F8011B002403F8014B4FF0000A9E
:1086F00003F801AB4FF0000B03F801BB4FF0000C87
:1087000003F801CB4FF0000E03F801EB434515D001
:108710001846002200F8012B083303F8072C42709A
:1087200003F8052C03F8042C03F8032C03F8022C9F
:1087300003F8012C4345EBD1BDE8F88FBDE8F88F75
:10874000BDE8F88F000080BF90F84830002B00F0A3
:10875000CB80D0ED176A9FED827ADFED827A37EE1B
:10876000666A012BE6EE276AC0ED176A00F0988072
:1087700090ED181A77EE411A022BA1EEA71A80EDA0
:10878000181A40F0C78090ED192ADFED772A70EEB5
:10879000C25AB0EE423AA5EEA23AF0EE470AF0EE27
:1087A000673A80ED193AD0ED1D6A90ED1A5A9FEDA7
:1087B0006F6ABFEE007AF4EE476AF1EE10FA70EEDF
:1087C000C50A08BFF0EE406AA3EEA05A70EE663A02
:1087D00008BF80ED1D0AF0EEE37AF4EEC67AF1EE02
:1087E00010FAD4BF0022012280ED1A5A80F87820B6
:1087F0000AB180ED1D0A90ED1B2ABFEE001AB4EEFF
:10880000412AF1EE10FA62D0D0ED1C1A70EE422A25
:1088100000EB8301F5EEC02AF1EE10FA91ED133A68
:1088200040F38E80DFED526A76EEC20A36EEC37AEE
:1088300087EE205ADFED4C3AB4EEE35AF1EE10FA2F
:1088400008D4F2EE043AB4EE635AF1EE10FAD8BF4F
:10885000F0EE453A30EE616ADFED447AB0EEC61ACA
:10886000B4EEE71AF1EE10FA4EBFDFED3D2A414AB1
:108870000267B0EE432AA3EEA22AB5EEC02AF1EEBB
:1088800010FA66D4F7EE001AB4EE612AF1EE10FA8F
:10889000C8BFB0EE612A81ED132A80ED1B0A704734
:1088A00090ED184AD0ED194A9FED2F5A70EEC40A88
:1088B00077EE646AA0EE854AE6EEA74A80ED184A94
:1088C000C0ED194AF0EE470AF0EE673A6BE700EBAD
:1088D000830282ED130AF0EE401AB0EE402A80EDDA
:1088E0001B0A80ED1C0A91E790ED177AD0ED187AFB
:1088F0009FED1B6A9FED1C1ADFED1A1A30EEC72A96
:1089000076EE672AA2EE017AE2EEA17A80ED177A7E
:10891000C0ED187A90ED193A9FED114ADFED114A3A
:10892000DFED113A74EE435A032BA5EEA43A18BFBB
:10893000F0EE440A80ED193A18BFF0EE643A32E7DF
:108940009FED0D4A72EE044A73EE045A85EEA45A66
:1089500070E79FED032A81ED132A80ED1B0A704713
:10896000000000006F12033BCDCCCC3D0AD7A33CE6
:10897000C520803F000080BF6F12833A2DE9F84F79
:108980000446CE4B00881D7807EE900A0E46FBEE9B
:10899000C87A04F11C0227461DB1B7EE007A77EEC3
:1089A000677A597821B1A06990ED020A77EEC07A12
:1089B000D2ED000AD3ED016AC14B37EEE01A012176
:1089C000E6EE810AE2EC010A7D8802EE905A1D78FB
:1089D00007F10209FBEEC82A1DB1F7EE001A71EE8D
:1089E000E22A5F7837B1A06900EB810898ED022A8E
:1089F00072EEC22A92ED003AD3ED013A1D7A32EEC0
:108A0000C34A03F1080BA3EE843A01F1010AA2EC78
:108A1000013AB9F8023005EE903AFBEEC85A1DB1A2
:108A2000F7EE004A74EEE55A9BF8011031B1A769E0
:108A300007EB8A0C9CED025A75EEC55A1046B0EC55
:108A4000016A9BED017A9BF8085035EEC60A09F1E0
:108A50000407A7EE006A0AF101030BF1080E00ED0E
:108A6000016AB9F8041007EE901AFBEEC87A1DB13E
:108A7000F7EE000A70EEE77A9EF8010030B1A569C2
:108A800005EB8309D9ED026A77EEE67A92ED011AD9
:108A9000DEED011A37EEC12A0AF10201A1EE821AB7
:108AA00008320A290BF1100302ED011A8CD194ED62
:108AB0000F4AD4ED102AE7693760B0EE003AA2EE13
:108AC000C34AB5EEC04AF1EE10FA00F16681F7EE46
:108AD000003AB4EE634AF1EE10FAC8BFB0EE634A52
:108AE00094ED085A86ED044AB5EEC05AF1EE10FA3C
:108AF00000F15081F7EE004AB4EE645AF1EE10FA3C
:108B0000C8BFB0EE645AD4ED095A94ED0A6A86EDF6
:108B1000035A35EEC60A0020B5EEC00AF1EE10FA8F
:108B200000F13681B7EE007AB4EEC70AF1EE10FA22
:108B3000C8BFB0EE470A86ED010AD4ED0E0A94EDE7
:108B40000D0AF1EE606A76EEA60A2046FFF7FCFDFC
:108B500094ED131AD4ED171A9FED5A2ADFED5A7AC5
:108B600071EE212AE2EE827AF5EEC07AF1EE10FA89
:108B700000F10B81B7EE003AF4EE437AF1EE10FA11
:108B8000D8BFB0EE673AD4ED163A94ED1A4A86EDA6
:108B9000053A73EE844AF5EEC04AF1EE10FA00F1A0
:108BA000F180B7EE005AF4EE454AF1EE10FAD8BF64
:108BB000B0EE645AD4ED155A94ED196A86ED085A50
:108BC00035EE860AB5EEC00AF1EE10FA00F1D78054
:108BD000B7EE007AB4EE470AF1EE10FAD8BFB0EE65
:108BE000407AD4ED140AD4ED186A86ED077A70EE57
:108BF000A61AF5EEC01AF1EE10FA00F1BD80B7EE3C
:108C0000001AF4EE411AF1EE10FAC8BFF0EE411A64
:108C1000A16994ED0B2A91ED003AD1ED013ADFED17
:108C20002B7A94ED0C4AD4ED114A294DC6ED061A63
:108C3000A4EE233A62EE272A33EE641ABDEEE25A1E
:108C4000F0EEC11A15EE102AF6EE006A4FEA82081D
:108C500008EB050AF4EEE61AF1EE10FA9AED006A56
:108C60009AED010AD8BF9FED1B3ADFED1B7AF8EEB3
:108C7000C55A70EE460A32EEE57AD8BFE1EE034AF5
:108C8000A7EE206AD8BFB0EE643A36EE032A86ED2E
:108C9000026AB4EEE72AF1EE10FA84ED113A5FD5DC
:108CA000C6ED027A04F1140002F010F8A37D277DCE
:108CB000002B4FD1002F73D114E000BF0000002023
:108CC000080000206666863FCDCCCCBC0000804406
:108CD000CC2C0208CDCC4C3E000040C200004042EB
:108CE00000000000E37D94F881A094F8869094F849
:108CF000828094F887C094F883B094F8885094F8F0
:108D000080E094F8852094F8847094F8891086F8AF
:108D100025E086F82620667D84F880A084F885907A
:108D200084F8818084F886C084F882B084F8875003
:108D300084F8837084F8881053B186F0010084F8B9
:108D4000840084F889302046BDE8F84F01F0EEB980
:108D50001846F4E7002FC5D1012086F82400C1E7AA
:108D60005FED222AB4EEE22AF1EE10FAC8BFB0EEAF
:108D7000622A86ED022A95E75FED271A48E71FED84
:108D8000287A2EE71FED2A5A14E71FED2B3AFAE650
:108D90007060D2E61FED2E5AB5E61FED2F4A9FE612
:108DA00086F824309EE700BF2DE9F84F8046002367
:108DB00008F8043BA74E814600F144074FF0EF0C42
:108DC000B246454606F1400B54460FCC5C45286040
:108DD0006960AA60EB60A24605F11005F4D1434634
:108DE0006FEA080113F8012B3944BB4201F0070078
:108DF0004AD048B3012821D002281BD0032815D01F
:108E000004280FD0052809D0062803D013F801BB89
:108E10005A4492B213F8014B224492B213F801ABB8
:108E2000524492B213F8015B2A4492B213F8011B28
:108E30000A4492B213F8010B024492B213F801BB38
:108E40005A44BB4292B21FD01C469D7814F801AB25
:108E5000D87894F800B01C79597952441BFA82F200
:108E600015FA82F510FA85FA083313F8020C14FA91
:108E70008AF411FA84FB13F8011C10FA8BF211FA30
:108E800082F5BB42AAB2DFD1D043B6F84030B6F883
:108E9000424081B28B4200F0CA806F4A443E964203
:108EA0000CF1FF3C8CD16D4B6D486E4DC9F8040040
:108EB0004FF0000A4FF0800E0121FF24C9F808503E
:108EC000C9F80C30C9F81030C9F81430C9F8183096
:108ED000C9F81C30C9F82030C9F82430C9F8283046
:108EE000C9F82C30C9F8303089F838E089F800101A
:108EF000A9F844A089F834A089F835A089F836A0EB
:108F000089F839A089F83AA089F8374013F072FE41
:108F1000F32013F07FFEB9F84420534E534802EB80
:108F200002154FEA850B5E44864200F28980002AD2
:108F300000F088804E4D4F4E0BF1006C5D445E4456
:108F40000CF580431C4603F1400BC3EB080A204696
:108F50005AF80410043413F0D3FE5C45F7D14346AD
:108F60006FEA080813F8012BB844BB4208F0070168
:108F70004CD049B3012921D002291BD0032915D097
:108F800004290FD0052909D0062903D013F801EBD5
:108F9000724492B213F8010B024492B213F801CB5F
:108FA000624492B213F801BB5A4492B213F801AB77
:108FB000524492B213F8014B224492B213F8018B3F
:108FC0004244BB4292B221D0194693F802C011F834
:108FD00001BB93F803E091F800A01C79587993F84D
:108FE00006805A441AFA82F21CFA82F11EFA81FCB7
:108FF000083314FA8CF410FA84FB13F8010C18FAF5
:109000008BF210FA82F1BB428AB2DDD1D743B9B2FA
:10901000304613F095FE2846B9F8441013F090FE40
:10902000B9F844305D1CA9F84450BDE8F88F644598
:109030007FF433AF0CF10106A9F84460BDE8F88F66
:10904000A9F844A00820022113F01EFE094E084D85
:10905000094B77E77C7F0008BC3F0008AE47013F23
:109060000A5785421F85A8C244400008FF7F0008B8
:109070004240000840400008004000082DE9F04F41
:1090800083B00C4601F204460193174613F0B2FD7B
:10909000F32013F0BFFD04F10800C000022113F01B
:1090A000F3FD019B7604002B00F0B08008374FF0F1
:1090B000000A304657F8081C13F022FE301D57F8FE
:1090C000041C13F01DFE57F8048C3C68B8F1030F24
:1090D00006F1080640F29280A8F1040954F8041B36
:1090E00030464D4613F00CFE032DC9F3820206F103
:1090F000040B7CD9002A46D0012A3AD0022A30D06B
:10910000032A26D0042A1CD0052A12D0062A08D009
:10911000584654F8041B13F0F3FDA9F104050BF1B4
:10912000040B584654F8041B13F0EAFD043D0BF100
:10913000040B584654F8041B13F0E2FD043D0BF1F8
:10914000040B584654F8041B13F0DAFD043D0BF1F0
:10915000040B584654F8041B13F0D2FD043D0BF1E8
:10916000040B584654F8041B13F0CAFD043D0BF1E0
:10917000040B5846043D54F8041B13F0C1FD032DA5
:109180000BF1040B33D92346584653F8041B0093C4
:1091900013F0B6FD00990BF104090968484613F075
:1091A000AFFDA1680BF1080013F0AAFDE1680BF117
:1091B0000C0013F0A5FD21690BF1100013F0A0FDC8
:1091C00061690BF1140013F09BFD203454F8081C66
:1091D0000BF1180013F094FD203D0BF11C0054F826
:1091E000041C13F08DFD032D0BF1200BCBD8A8F13F
:1091F000040020F0030C0CF1040E7644019C0AF1EB
:10920000010AA24507F10C077FF453AF03B0BDE894
:10921000F08F00BF2DE9F047074613F0EBFCF32079
:1092200013F0F8FCB7F844104B4B4C4801EB01121B
:1092300094002344834207F1040A7FD90025A7F84C
:1092400044500221082013F01FFDDFF81881DFF8D9
:10925000189143490C4601F14006C1EB0A0520462E
:109260002959043413F04CFDB442F8D1534607F1A8
:10927000440013F8012B6FEA0A0C844483420CF07B
:1092800007014AD049B3012921D002291BD0032963
:1092900015D004290FD0052909D0062903D013F8C9
:1092A00001EB724492B213F801AB524492B213F83C
:1092B000016B324492B213F8015B2A4492B213F864
:1092C000014B224492B213F801CB624492B213F8DC
:1092D000011B0A44834292B21FD01D4693F802E05C
:1092E00015F801ABDE7895F800C01D7959799C79A5
:1092F00052441CFA82F21EFA82FE083316FA8EF6E7
:1093000015FA86F511FA85FA13F801CC14FA8AF1E8
:109310001CFA81F48342A2B2DFD1D34399B2404612
:1093200013F00EFD4846B7F8441013F009FDB7F8E6
:109330004400421CA7F84420BDE8F087002980D0F3
:10934000DFF82490DFF81C8004F10066A144A044FB
:1093500006F580417EE700BF44400008FF7F00081B
:1093600000400008404000084240000870B5044634
:109370009430C4F88C10C4F890201D46049E01F06F
:10938000C1FC04F19E0001F001FED4F88C10C4F879
:10939000C4600B2384F8BC30C4F8C050D4F89020CB
:1093A00091F83560D06E284BEC7A106706F0030C0C
:1093B00082F848C0D36691F8346016F0010F06F0C9
:1093C000030C0CBF0220012014B96C68844235D014
:1093D00068604FEA5C030120E8722B7291F8364016
:1093E000DFED1A7A04F003062E7091F8375007EE7D
:1093F000105AB8EE470AC0EE270AC2ED130A91F8D8
:1094000038E001EE10EAF8EE411A81EEA72A82ED6B
:10941000142A91F839C002EE90CAB8EE623AC3EE4F
:10942000273AC2ED153A91F83A1004EE101AF8EE08
:10943000444A84EEA75A82ED165A70BD2E7A4FEA3E
:109440005C0383EA0600C7E7000080BF00007F439B
:10945000D0F89020D0F88C3092F8481083F835106E
:10946000D0F8C0104A68097AB2F1010CDCF10002B0
:1094700052EB0C0C09B14CF0020C83F834C0D0F85C
:10948000C010DFED1C7A0A7883F83620D0F89010EF
:1094900091ED137A27EE270AFCEEC00A10EE90CA6F
:1094A00083F837C0D0F8902092ED141A61EE271A95
:1094B000BCEEE12A12EE101A83F83810D0F8902092
:1094C000D2ED152A22EEA73AFCEEC33A13EE901A1B
:1094D00083F83910D0F8902092ED164A64EE274AAE
:1094E000BCEEE45A15EE101A83F83A10D0F88C004E
:1094F000FFF790BE00007F4370B500F1940504466D
:10950000284601F0F1FCCF4B19681A68560801F0A3
:109510007F005FFA86FC40284FEA4C0194F8BC209B
:1095200094BF002001205FFA81FC360648BF8CF012
:10953000FF0C0B2A68D8DFE812F0A8000C00CA0064
:10954000D900E600F60000010A011E0132014501C2
:109550005001D4F89030DFEDBC7A93ED137A27EE0A
:10956000270AFCEEC00A10EE900AC6B2300600F1DF
:10957000B58176005FFA86FC002284F8962084F894
:109580009AC093ED141ADFEDB01A21EE212AFCEEF9
:10959000C22A12EE901AC8B2010600F18D81420073
:1095A000D0B2002184F8971084F89B0093ED153A0F
:1095B000DFEDA53A23EE234AFCEEC44A14EE906A8E
:1095C000F2B2160600F16E814FEA420E5FFA8EFC8F
:1095D000002284F8982084F89CC093ED165ADFEDA1
:1095E0009A5A25EE256AFCEEC66A16EE903AD9B272
:1095F000080600F16B814B005FFA83FE4FF0000C10
:1096000084F899C084F89DE0D4F8C00041F6A8120F
:10961000865C84F89460817A11B3D4F8C4308B48A6
:109620005A681E68B242A8BF1646F11130F91130CF
:10963000002B12DB5800B0F5404F80F2ED80B0F502
:10964000004F11DAB0F5804F80F2028186114FF0A1
:10965000000E84F89A6084F896E0012184F8941052
:10966000284601F0D1FB70BDC0F38713FF26002010
:1096700084F8983084F89C3084F8970084F8960039
:1096800084F89B6084F89A60E7E7D4F8C4006F4ED2
:10969000416802689142A8BF0A464FEAE21E36F9C5
:1096A0001E30002BB0DB5800B0F5404F80F2DD805B
:1096B000B0F5004F80F21C81B0F5804F80F24B81F5
:1096C0008611002184F89A6084F896109CE7D4F8FB
:1096D000C0004668027AB6F1010CDCF1000353EBDE
:1096E0000C0C002A70D04CF0020C6DE0D4F89030D5
:1096F00093F848C0A4444FF0000EFF218CF896E088
:109700008CF89A1080E7D4F8C03093F800E01CFB86
:109710000CF1480AA644A0F18006C2438EF8966078
:109720008EF89A2070E794F8C8C0A44446420022FC
:109730008CF89A608CF8962066E794F8C830234439
:109740004142002083F8961083F89A005CE7FF26D8
:109750004FF0000E84F8966084F8976084F8986063
:1097600084F8996084F89AE084F89BE084F89CE09F
:1097700084F89DE048E700B1FF20002284F89600BD
:1097800084F89A0084F8970084F89B0084F8982065
:1097900084F89C2084F8992084F89D2034E700B157
:1097A000FF2084F8960084F89A0084F8970084F8E3
:1097B0009B0084F8980084F89C0084F8990084F851
:1097C0009D0021E794F8C8C0A4444FF0FF0E00218B
:1097D0008CF896E08CF89A1016E718681B689908C0
:1097E0004FEA102ECAB20EF101065000C3B20906AC
:1097F00006F0030CCCF1030648BF83F0FF035FFAC9
:1098000086FE1E0647D45900C8B20023A6448EF82F
:1098100096308EF89A00F7E6FF224FF0000C4FEAE0
:10982000901E84F899E084F89DC084F897C084F86D
:1098300096C084F8982084F89C2084F89B2084F8B3
:109840009A200AE79CFB012000007F43D03C0208DD
:1098500000224FEA901CFF2184F89BC084F89720D7
:1098600084F8962084F89A10F7E64FF0FF0C002356
:109870004FEA901E84F899E084F89D3084F8973080
:1098800084F8963084F898C084F89CC084F89BC013
:1098900084F89AC0B8E6BF2B3BD89E0006F0FC03C4
:1098A000FF20B3E7BF2A3BD902F140006FEA8001F5
:1098B0005FFA81FCFF228CE6BF2837D900F1400611
:1098C0006FEA860E5FFA8EF0FF216BE6BF2933D870
:1098D0008A0002F0FC0C4FF0FF0E91E6BF2E34D947
:1098E00006F140026FEA82015FFA81FCFF2244E642
:1098F000C0F387100026FF2184F8980084F89C00AC
:1099000084F8976084F8966084F89B1084F89A1025
:109910007AE603F140016FEA8102D0B2FF2375E7D6
:10992000960006F0FC024FF0FF0C52E64FEA800C66
:109930000CF0FC01FF2035E601F140006FEA8006E3
:109940005FFA86FE4FF0FF0C5AE6B00000F0FC0212
:109950004FF0FF0C11E600224FEA901CFF2384F821
:109960009BC084F8972084F8962084F89A304BE6C0
:109970002DE9F047564D2B6800F19E06591C044610
:109980003046296001F03AFB30462346002210F8A9
:10999000011B802922D0A9B9D3F8A46036B12F6861
:1099A000DFF82C81BE1BB6F57A7F50DCD3F8B010FF
:1099B00051B12F68DFF818C1791AB1F57A6F2CDC34
:1099C00010F8011C7F2960D00132032A03F104033F
:1099D000DDD12046FFF790FDBDE8F087D4F8881070
:1099E000271D07EBC1094E1C06F00F0E4FF00408AF
:1099F0004FF0000C07F83180A9F80220C9F804C024
:109A0000C4F888E029682F682E682160C3F8A47024
:109A1000C3F8B06010F8011CBDE7D4F8886004F109
:109A2000040E0EEBC60A771C4FF0040907F00F086E
:109A30000EF83690CAF80410AAF80220C4F88880FC
:109A4000DCF8001021600026C3F8B060B8E7D4F855
:109A5000887004F1040C0CEBC70E07F101094FF0FC
:109A6000040A09F00F090CF837A0CEF80460AEF82C
:109A70000220C4F88890D8F800602660C3F8A410CB
:109A800010F8011C002991D09CE7D3F8A4100029FC
:109A90009AD02F68D4F8886004F1040E0EEBC60A41
:109AA00007F1010C771CC1EB0C094FF0040807F01B
:109AB0000F010EF83680CAF80490AAF80220C4F804
:109AC00088102E6826600027C3F8A4707CE700BFCA
:109AD0009CFB0120D0F89030DFED327A5A8919884A
:109AE000B3F802C007EE102A9A8803EE101A03EEAC
:109AF00090CAD988B3F808C004EE102A9A8904EEF7
:109B0000901A05EE10CAD989B3F810C005EE902A54
:109B10005A8A06EE101A02EE902A06EE90CAB8EEA5
:109B2000470AF8EE430AB8EE631AF8EE441AB8EEA4
:109B3000642AB8EE455AF8EE655AB8EE466AF8EE71
:109B4000666AF8EE622A9A6920EE277A20EEA73A32
:109B500061EE273A21EEA74A62EE274A25EE270A50
:109B600065EEA70A26EE271A66EEA71A62EEA77A16
:109B7000092183ED1F7A82ED077A82ED023AC2ED68
:109B8000033A82ED044AC2ED054A82ED060AC2EDAF
:109B9000080A82ED091AC2ED0A1AC2ED0B7A80F8A2
:109BA000BC10704700008037D0F89030DFED1B7A92
:109BB0005A8993ED1F7A06EE902AF1EE470AB8EE25
:109BC000660AB0EE606AA0EE276A10B5FEEE001AD3
:109BD000B4EEE16AF1EE10FA044604DDB5EEC06AB7
:109BE000F1EE10FA03D4072084F8BC0010BDB3EEE8
:109BF000082AC2EE062A9969D0F88C00B2EE083A1B
:109C0000A0EEA23AC1ED012A81ED003AFFF702FB76
:109C10004FF0000C84F8BCC010BD00BF00008037BE
:109C200070B54B888EB0044623B3012B0BD14A6824
:109C3000B2F57A7F09DB90F89E0030B90823C4F8AA
:109C4000A40084F8BC300EB070BD94F8BC10082994
:109C500000F0A38009293CD006294AD0052900F04C
:109C6000A080B2F57A7FACBF0621052184F8BC1034
:109C70000EB070BD4968B1F57A6F21DAB1F57A7F1F
:109C800090F8BC2016DA012A40F28380032A00F003
:109C90009D80022A5CD0042A1FD0501FC6B2012E1C
:109CA00013D894F8C8C00CF1010505F0030384F83B
:109CB000C830C8E7022A08D0022084F8BC00C2E7F6
:109CC000042580F8BC500EB070BD002184F8BC1093
:109CD000B9E72046FFF768FFB5E7D0F8C04094F831
:109CE00000E00EF1010101F003022270FFF7B0FB6A
:109CF000A9E73F4AD4F8C00011684FF00A0E0126C8
:109D0000002584F8BCE001F1050C0195467213684A
:109D10009C45FCD201F07AFB02A9D4F8C00001AA4C
:109D200001F0AEFB02AAD4F88C0094F8C810019B95
:109D3000FFF7A4F9D4F8C0000021417294F8C820BC
:109D400084F8BC10561C06F0030584F8C8507AE766
:109D5000D0F8C03059681D7A481E464256EB000CB8
:109D60000DB14CF0020C0CF1010EDE7A1EF0010F69
:109D70000EF003020CBF022001200EB9814234D044
:109D8000586051080125DD7219722046FFF760FB0B
:109D900059E7032280F8BC2055E72046FFF79AFEDA
:109DA00051E794F8C850D4F8C00005F20446710495
:109DB00002F01AFD94F8C8C00CF1010303F003028D
:109DC000002084F8C82084F8BC003CE7D0F890401C
:109DD00094F84830E66E266703F1010C0CF0030E90
:109DE00084F848E0FFF734FB2DE751084D40CAE7FF
:109DF0009CFB012030B5D0F88820D0F88430044690
:109E0000D01A83B0020718BF6D4607D13DE0D4F8E1
:109E10008820D4F88410501A030736D0D4F8843040
:109E200004EBC30101F1040C9CE8030085E8030086
:109E30009DF80020581C00F00F03042AC4F8843059
:109E4000E5D1019971B9BDF80220022ADFD1D4F819
:109E5000C01001F5CD5C9CF8080080F001038CF87F
:109E60000830D4E7B1F57A7F0ADBBDF8020038B9D3
:109E700094F89F3023B9C4F8A83084F8BC20C6E712
:109E800020466946FFF7CCFEC1E71F4D23682A68CC
:109E9000C3EB020CBCF57A7F1ED994F8BC100729DD
:109EA0002BD001291CD903291AD02D681649C3EBE0
:109EB000050C40F6B83294450CD994F8BC300868CB
:109EC00020605D1EE9B2052901D90B2B02D10022C9
:109ED00084F8BC2003B030BD94F8BC100129E2D84E
:109EE000D4F8902092F8781009B92368DDE72B6840
:109EF0002360012084F8BC00D7E72B682360002092
:109F000084F8BC00ECE700BF9CFB012038B54B1186
:109F1000044601F01F01042B3ED8DFE803F025259D
:109F20001C14030031B3012932D0FFF73DFED4F8F1
:109F300090300025DA6E1A67204683F84850FFF704
:109F400087FA284638BDD0F8C0000C1C18BF012481
:109F50008472002038BD022912D9D0F8903003292C
:109F60000CBF987DD87D38BDD0F8902032F81150C4
:109F7000280A38BD4FF0080C084684F8BCC038BD2C
:109F8000014491F89E10D1F1010038BF002038BD86
:109F9000FFF7A0FD002038BD002038BD2DE9F047B7
:109FA00001219CB004464FF4800013F0D1F9052044
:109FB000012113F0CDF94FF480700121002513F039
:109FC000E3F90327FF2301A954480193DFF85491D3
:109FD0008DF80B508DF8087012F0D2FE01A9504890
:109FE00001978DF80B508DF8087012F0C9FE0F9490
:109FF000DFF834C1CDF838C04FF400544FF4806E10
:10A0000004F1804C01264FF400334FF00A084FF45E
:10A0100080724FF4006A48460DA9CDF84CE01793C2
:10A02000169215940D950CF580341095129518958F
:10A030001A951B95CDF84480CDF850A0199612F0D2
:10A0400071FD4846314612F0A9FD4FF470624FF49D
:10A05000403103A8069204910395059512F03AFC4D
:10A06000204607A9CDF82CA007958DF820608DF823
:10A0700021500A9509958DF8308012F0FDFB20469D
:10A0800032460221072312F047FC204639460222BD
:10A09000072312F041FC204641463A46072312F0BE
:10A0A0003BFC204631460422072312F035FC2046B3
:10A0B0000B210522072312F02FFC20460421062243
:10A0C000072312F029FC072120460A460B4612F00E
:10A0D00023FC204605210822072312F01DFC204600
:10A0E00006210922072312F017FC424607232046C7
:10A0F000294612F011FC2046314612F071FC204630
:10A10000314612F0FFFB2046314612F05FFC20463C
:10A1100012F056FC1CB0BDE8F08700BF0000024002
:10A1200000080240106402404C200140014812F037
:10A1300047BC00BF002001402DE9F0412A4C2B4FC5
:10A1400082B00620012113F003F902254FF4406389
:10A150000026204669464FF0010800938DF8045010
:10A160008DF805508DF806808DF8076012F008FE16
:10A1700020460A21042212F05BFF20460B21042214
:10A1800012F056FF4FF470422046694600928DF857
:10A1900004508DF805508DF806608DF80760402555
:10A1A00012F0EEFD69463846009512F0E9FD2046B2
:10A1B0000C21052212F03CFF20460D21052212F051
:10A1C00037FF20460F21052212F032FF20460E21D4
:10A1D000052212F02DFF38460621052212F028FF35
:10A1E000404602B0BDE8F081000402400008024091
:10A1F000F0B5154C85B001214FF4800013F0B6F88E
:10A20000204612F02DFF04A9104B41F8103D4FF4E9
:10A2100080624FF4804C2046694600274BF6FF765B
:10A220003325ADF80A20ADF80CC0ADF80470ADF8D8
:10A230000660ADF8085012F049FF2046012112F0E7
:10A24000BFFF012005B0F0BD00580040A08601000E
:10A2500070B5002084B014460E4613F073F8002049
:10A2600013F020F84BF680339C420CD04AF6444061
:10A27000844261D0B4F5FA4F64D035498C4255D050
:10A28000002004B070BD4FF48170032113F000F87A
:10A29000012013F007F83B2013F0A0F84FF480558D
:10A2A00010BB3B2013F09AF8F0B93B2013F096F85E
:10A2B000D0B93B2013F092F8B0B93B2013F08EF8E0
:10A2C00090B93B2013F08AF870B93B2013F086F860
:10A2D00050B93B2013F082F830B93B2013F07EF8E0
:10A2E00010B9083DDDD1CBE74FF48040012113F0D8
:10A2F0003DF8184813F08CF800220294ADF80220C3
:10A30000ADF80420ADF80C200EB14FF4007669468C
:10A310001048ADF80060ADF8066013F0E1F869464A
:10A320000D4813F073F9012004B070BD40F289109C
:10A33000042112F0ADFFABE740F20F10062112F03E
:10A34000A7FFA5E74FF4D570042112F0A1FF9FE706
:10A3500000770100003800400034004070B57348B9
:10A360000E464FF40031154612F074FF4FF4961468
:10A3700098B34FF400316D4812F06CFF4FF4003188
:10A3800058B36A4812F066FF4FF4003128B36748AB
:10A3900012F060FF4FF40031F8B1644812F05AFF38
:10A3A0004FF40031C8B1614812F054FF4FF400314E
:10A3B00098B15E4812F04EFF4FF4003168B15B482F
:10A3C00012F048FF4FF4003138B1584812F042FF04
:10A3D00018B1083CCDD1002070BD5448012112F0C5
:10A3E000FFFE5248524912F027FF4FF4805450BBF1
:10A3F0004F494E4812F020FF4D4920BB4B4812F008
:10A400001BFF4B49F8B9494812F016FF4849D0B92B
:10A41000464812F011FF4649A8B9444812F00CFF13
:10A42000434980B9414812F007FF414958B93F48B4
:10A4300012F002FF3E4930B93C4812F0FDFE10B95F
:10A44000083CD5D1C7E739483421002212F0E8FE94
:10A450003648384912F0F0FE4FF4805450BB35496D
:10A46000324812F0E9FE334920BB304812F0E4FED6
:10A470003049F8B92D4812F0DFFE2E49D0B92B48EB
:10A4800012F0DAFE2B49A8B9284812F0D5FE294966
:10A4900080B9264812F0D0FE264958B9234812F058
:10A4A000CBFE244930B9214812F0C6FE10B9083C51
:10A4B000D5D190E7C5F3002141EA4600C1B21B485F
:10A4C00012F0B8FE19481C4912F0B6FE4FF4805441
:10A4D000002833D11849154812F0AEFE164968BB62
:10A4E000124812F0A9FE144940BB104812F0A4FE15
:10A4F000114918BB0D4812F09FFE0F49F0B90B48E7
:10A5000012F09AFE0C49C8B9084812F095FE0A49A3
:10A51000A0B9064812F090FE074978B9034812F036
:10A520008BFE58B9083CD5D155E700BF0058004014
:10A53000010003008200070080000700E9B23648EE
:10A5400012F078FE3448354912F076FE4FF480560A
:10A5500050BB3249304812F06FFE304920BB2E48C4
:10A5600012F06AFE2D49F8B92B4812F065FE2B490E
:10A57000D0B9294812F060FE2849A8B9264812F03F
:10A580005BFE264980B9244812F056FE234958B98B
:10A59000214812F051FE214930B91F4812F04CFEFB
:10A5A00010B9083ED5D116E71B481D4912F052FEDE
:10A5B0004FF4961450BB1A49174812F04BFE184935
:10A5C00020BB154812F046FE1549F8B9124812F0A2
:10A5D00041FE1349D0B9104812F03CFE1049A8B909
:10A5E0000D4812F037FE0E4980B90B4812F032FECA
:10A5F0000B4958B9084812F02DFE094930B90648F0
:10A6000012F028FE10B9083CD5D1E4E60248012139
:10A6100012F0F6FD012070BD0058004080000700D8
:10A620000400001070B50C4616460F2100220546A6
:10A63000FFF794FE00283BD0284600211722FFF7A1
:10A640008DFE002834D0284601211722FFF786FE10
:10A6500070B3284602210022FFF780FE40B328464F
:10A6600003210022FFF77AFE10B3284604211222AC
:10A67000FFF774FEE0B1002228460521FFF76EFEC9
:10A68000002C14BF62224222D0B128460621FFF7D7
:10A6900065FE002C0CBF42220222B8B9E4B14AF692
:10A6A00044439E420CBF2022002218BB002070BDF4
:10A6B000002C4FF0000014BF622242220028E4D197
:10A6C000002C0CBF422202220028E7D02846072196
:10A6D000FFF744FE002CE2D1B6F5FA4F19D01ADD8F
:10A6E0004AF64442964212D00E498E4218D11C229C
:10A6F0000028DBD028460821FFF730FE0028D5D0FF
:10A70000284609210022BDE87040FFF727BE20221D
:10A71000CBE71822C9E7B6F5FA5F01D10C22C4E7EE
:10A720000022C2E7007701002DE9F04F3B4F3C4E7D
:10A73000044683B001214FF4001012F009FE3846A0
:10A74000002112F02BFA384612F054F9354BA36170
:10A7500000254FF480634FF6FE724FF4006B4FF408
:10A76000005A4FF480794FF400384021E36262626E
:10A7700021626561E561A56225646564A564E5649F
:10A78000C4F830B0C4F834A0C4F83890C4F83C80A1
:10A79000384604F114010093019212F0C3F92946DE
:10A7A000304612F0FBF9304612F024F91E4F0199A1
:10A7B000009AA5654FF0C060E56521666566A266F2
:10A7C000C4F86CB0C4F870A0C4F87490C4F8788071
:10A7D000E567C4F88050C4F88450C4F888502065F8
:10A7E000676504F15001304612F09CF930460F4E77
:10A7F000182101224FF4804412F0DAF90C48346039
:10A800000221012212F02CFF01210A46094812F010
:10A8100027FF012003B0BDE8F08F00BF7060024049
:10A82000586002400C3800400C34004000E100E069
:10A83000003800400034004070B5134B0446154604
:10A84000002245601860026121700E46FFF774FC1B
:10A8500008B9002070BD2046FFF7CAFC0028F8D0D8
:10A86000204631462A46FFF7F3FC0028F1D0314656
:10A870002A462046FFF7D6FE0028EAD02046BDE84B
:10A880007040FFF751BF00BF98FB0120F8B50E469E
:10A890001746092101220446FFF760FD05460028FE
:10A8A0003DD0202E53D82378002B3AD02F48276153
:10A8B000818B4A0552D52E48828B53054AD5207884
:10A8C00004F18C0704F56373E761A36568B96068F8
:10A8D0004BF6803C604545D0264A904244D0B0F5C6
:10A8E000FA4F0CBF0321012100E00121B70001FB59
:10A8F00007F363622366E1601F48A66004F1140158
:10A9000012F010F904F150011C4812F00BF91A482A
:10A91000012112F043F91948012112F03FF92846AC
:10A92000F8BD17484FF4805112F076FB0028F8D19B
:10A9300013484FF4805112F06FFB0028B6D1104835
:10A940004FF4805112F068FB0028F1D0AEE70025EB
:10A950002846F8BD012112F049FEB0E7012112F0AE
:10A9600045FEA8E70221C1E70421BFE70038004007
:10A9700000340040007701007060024058600240DF
:10A9800000040240D0F810C02DE9F0410646BCF1A9
:10A99000000F00F00A818268C56805FB02F77800A5
:10A9A00001FB00F101F5E27306EB430806EB4104FD
:10A9B00004F18C0708F10400002D6FD0510001292B
:10A9C0006CD96D0008F1020E0EEB820E441908F1ED
:10A9D0000603C0EB0E01B4F80080A0F80280023933
:10A9E0007345C1F342012C4458D069B3012924D0E6
:10A9F00002291ED0032917D0042911D005290AD015
:10AA0000062904D0B4F8008023F8028F2C44218852
:10AA100023F8021F2C44B4F8008023F8028F2C4442
:10AA2000218823F8021F2C44B4F8008023F8028FF9
:10AA30002C44218823F8021F2C44B4F8008023F80A
:10AA4000028F73452C4429D01946B4F8008021F8B0
:10AA5000028F34F8058021F8028F04EB050834F8E2
:10AA600015404C8038F815101981A84408EB0501F1
:10AA700038F815405C8131F81580A3F80C80294422
:10AA80004C1931F81510D98134F81580A3F81080CD
:10AA9000103304EB450473452C44D5D13946E047C7
:10AAA000F268002A00F08380B068450007EB80035D
:10AAB0004FEA420E6E1E0EFB067706F1FF3C33F89E
:10AAC000024D3C806046CEEB07020CF007010028E7
:10AAD0006FD0C9B3012930D0022927D003291ED055
:10AAE000042916D005290ED0062906D033F8025DB8
:10AAF00015800CF1FF30CEEB020233F8026D1680A8
:10AB00000138CEEB020233F8027D17800138CEEB1C
:10AB1000020233F8024D14800138CEEB020233F802
:10AB2000028DA2F800800138CEEB020233F802CD8C
:10AB3000A2F800C00138CEEB020233F8021D1180EA
:10AB40000138CEEB020236D01F46CEEB020537F8B5
:10AB5000026D16803C46CEEB050834F8021D2980B4
:10AB600034F802CCA8F800C0CEEB080233F8087C19
:10AB70001780CEEB020533F80A6C2E80CEEB05046D
:10AB800033F80C8CA4F80080CEEB040C33F80E1CC8
:10AB9000ACF80010CEEB0C0233F8107C17800838AC
:10ABA000CEEB0202A3F11003CED1BDE8F081BDE8E7
:10ABB000F081BDE8F081BDE8F08100BF08B50F4B22
:10ABC0001A6812F0C05F0FD10C4B1A6812F0A05F28
:10ABD00000D108BD0A484FF0A051996000680021DB
:10ABE000BDE80840FFF7CEBE05484FF0C051996060
:10ABF00000680121FFF7C6FEE6E700BF00600240E3
:10AC000098FB012070B5102086B0012112F0BCFB2A
:10AC10001C4D1D4E0120014612F09AFB0024022318
:10AC200028464FF4C06269468DF805308DF804302F
:10AC300000928DF806408DF8074012F0A1F82846E2
:10AC40000921072212F0F4F928460A21072212F0FE
:10AC5000EFF94FF416550C22304602A9ADF8122038
:10AC6000ADF80C40ADF80E40ADF81040ADF8144012
:10AC7000029512F001FD3046012112F069FD06B087
:10AC800070BD00BF000002400010014030B501213E
:10AC900083B00546022012F05BFB00240123C02292
:10ACA0000948009269468DF804408DF806408DF8F9
:10ACB00005308DF8073012F063F8AC70EC702C7032
:10ACC0006C7003B030BD00BF0004024038B50C4DBD
:10ACD0008278C3780270044643708021284612F0BF
:10ACE0009BF9D0F1010038BF0020A0704021284618
:10ACF00012F092F9D0F1010138BF0021E17038BDA6
:10AD0000000402402DE9F041012182B005460220F5
:10AD100012F01EFB0420012112F01AFB0024012670
:10AD20004FF408736946364800938DF804608DF837
:10AD300005608DF806408DF8074012F021F869464D
:10AD4000302230488DF804608DF805608DF806409B
:10AD50008DF80740009212F013F8A81DC14305F1C9
:10AD60000A0705F107083944B845AC7001F0070639
:10AD7000EC7020462C716C71AC713CD02EB3012E5E
:10AD80001ED0022E19D0032E13D0042E0DD0052E66
:10AD900008D0062E1CBF88F8004005F108080023E3
:10ADA00008F8013B002408F8014B4FF0000C08F8AC
:10ADB00001CB4FF0000E08F801EB002208F8012B40
:10ADC000002008F8010BB84515D04146002601F8CF
:10ADD000016B08F1080808F8076C4E7008F8056C5C
:10ADE00008F8046C08F8036C08F8026C08F8016CA9
:10ADF000B8453046E9D12870687002B0BDE8F081EE
:10AE0000000402400008024070B54378827806468C
:10AE100003F12000C5B275701AB1AA4234BF0022F6
:10AE20000122B17919B18D4298BF42F00202F37844
:10AE30009400E0B21BB19D4298BF40F00100F2794E
:10AE40001AB1954298BF40F00200317983005FFA51
:10AE500083FC19B18D4298BF4CF0010C347A1CB1BF
:10AE6000A54298BF4CF0020C70794FEA8C02D4B224
:10AE700018B1854298BF44F00104717A19B18D422E
:10AE800098BF44F0020416481021002212F0CAF8BC
:10AE9000082513482021002212F0C4F814F0800F76
:10AEA0004FF000020F4818BF01222021013D12F08F
:10AEB000B9F8ADB263000A4820210122DCB212F0D9
:10AEC000B1F8002DE5D106481021012212F0AAF8B0
:10AED000327804484FF40071BDE8704012F0A2B817
:10AEE00000080240000402402DE9F001861D00F137
:10AEF0000A05F443C31D00222C44AB42827004F0C7
:10AF00000707C27011460271427182713AD027B3AD
:10AF1000012F1DD0022F17D0032F11D0042F0CD0DA
:10AF2000052F07D0062F1CBF1A7000F1080300215F
:10AF300003F8011B002603F8016B002403F8014B02
:10AF40004FF0000803F8018B4FF0000C03F801CB21
:10AF5000002103F8011BAB4214D01F46002207F862
:10AF6000012B083303F8072C7A7003F8052C03F83B
:10AF7000042C03F8032C03F8022C03F8012CAB4239
:10AF80001146EAD10170BDE8F001704770B50121AA
:10AF900082B00646022012F0DBF90420012112F0F3
:10AFA000D7F9002501244FF48073694611480093B6
:10AFB0008DF804508DF806508DF805408DF8074047
:10AFC00011F0DEFE69464FF440620B488DF80450E4
:10AFD0008DF806508DF805408DF80740009211F06D
:10AFE000CFFE3046FF2100F8011B00F8011B017065
:10AFF00002B070BD0004024000080240F0B5144BDE
:10B000000778144D83B00446186801907A00BDF8A3
:10B0100004102846D7B211F0FFFF40EA0703667814
:10B020002370BDF80610284611F0F6FF7500A178D0
:10B03000EFB238434A0060704FF480710648D6B2D0
:10B0400011F0EAFF40EA0603A37003B0F0BD00BFB1
:10B0500080D80108000802400004024001B970478E
:10B060004FF000604FF4004111F0FCBB074B084863
:10B07000084A10B4F0245A60002180F823400722C7
:10B0800099605DF8044B1A60704700BF10E000E063
:10B0900000ED00E03F90020010B40023012480F88E
:10B0A000244080E806008360C3615DF8044B70476C
:10B0B0002DE9F00F90F8243082B0002B40F0CA80C8
:10B0C00041690469019400914D1101994268009E03
:10B0D000D0F800C05FEA611902EB850306F01F0794
:10B0E00000F0AE8052F8254053F8042FDCF80060E1
:10B0F000C7F1200804FA07F122FA08FA4AEA010522
:10B1000085EA06046FEA040B4FEA5B0606F0553148
:10B11000C1EB0B05AC0804F0333A05F0333BDA44DD
:10B120000AEB1A1606F00F3101EB01254FEA8909E7
:10B13000042105EB054AA9F1040449454FEA1A66C2
:10B14000C4F3800576D03DB302FA07FB53F8042F11
:10B15000DCF8041022FA08F444EA0B0585EA010A37
:10B160006FEA0A0B4FEA5B0101F05534C4EB0B05A3
:10B170004FEA950A05F033310AF0333B8B440BEB71
:10B180001B1404F00F3505EB052A08210AEB0A4BC6
:10B19000494506EB1B664DD053F8045F5CF801404F
:10B1A00002FA07FA043125FA08FB53F8042F4BEA98
:10B1B0000A0B8BEA040B05FA07FA5CF8014022FA45
:10B1C00008F545EA0A056FEA0B0B85EA040A6FEAFF
:10B1D0000A0A4FEA5B054FEA5A0405F05535C5EBFC
:10B1E0000B0504F05534C4EB0A044FEA950B4FEA03
:10B1F000940A0BF0333B05F033350AF0333A5D44E3
:10B2000004F03334544405EB151B04EB141A0BF013
:10B210000F350AF00F3405EB052B04EB042A0BEB7A
:10B220000B4504310AEB0A4406EB1566494506EB6B
:10B230001466B1D18369B34202D2009FC7618661AF
:10B24000009A019D511C8D42CCBF0022012280F842
:10B250002420416102B0BDE8F00F704710B4002413
:10B260008461C461446180F824408260C3600161EC
:10B270005DF8044B704700BF2DE9F00F00F58455D1
:10B2800000F5875BDFED237A2349244A296100F525
:10B290008654AC462F46DA46002300F58556A14673
:10B2A0006A61C5ED037AB046CCF81C305D46BB61DF
:10B2B000B446C4ED077A216262625F46CBF80C3077
:10B2C0004C46CAF80830CB46CA4600F58850C6ED51
:10B2D000057AB161F261C9F804302360C8ED007AE3
:10B2E000C8F80410C8F80820C8F81030CCF80C30A2
:10B2F000C5ED047A6961AA610360FB61C4ED027A5D
:10B30000E1602261CBF81830CAF81430BDE8F00FC4
:10B31000704700BF22BA003D0AD7233CCAAA7F3F2C
:10B32000F8B5054600F5CE5669610698EA61002138
:10B3300002240C36AB6128626C6006F1B8022972F7
:10B34000A9725A270023093F136042F8043C936016
:10B3500053601361D360936153611362D36193624D
:10B3600053621363D362936353631364D36302F131
:10B370004802E7D130462449B42205F5EA5412F0D8
:10B380001FFA04F114072C20C6F8840307F1B80C47
:10B390005A260024093ECCF800404CF8044CCCF866
:10B3A0000840CCF80440CCF81040CCF80C40CCF865
:10B3B0001840CCF81440CCF82040CCF81C40CCF815
:10B3C0002840CCF82440CCF83040CCF82C40CCF8C5
:10B3D0003840CCF83440CCF84040CCF83C400CF13C
:10B3E000480CD6D1B4220849384612F0E9F92C218C
:10B3F000C7F884132846FFF73FFF042201232C617E
:10B400006A70EB72F8BD00BFD43E0208037A30B414
:10B4100023B3426841F2381C41F2181550F80C1061
:10B420004559B2F1010C42F2DC0442F2E003DCF1D6
:10B43000000252EB0C0C0551C1504CF00202057891
:10B44000B5F1030CDCF1000442F2E50142F2E40341
:10B4500054EB0C054554C25430BC704741F25811AE
:10B4600041F2781245584168835842F2DC0442F2B6
:10B47000E00C05514C1E624240F80C306241DEE7A0
:10B480004368F0B400F5035404F11C060C27114D79
:10B490000D60002B8E604F6001EB070412DD00EBA6
:10B4A000830C4769DCF818500B4E0D61012B4F617E
:10B4B000CE6003DD806908628E61CD6103EB4303DA
:10B4C00004EB8304611A054F8D1007FB05F6166027
:10B4D000F0BC70477374617462756666ABAAAAAA01
:10B4E0002DE9F04F437890F800B02DED028BDA1E75
:10B4F000B3EB0B050446D0B218BF012501288FB06D
:10B5000040F24A85BBF1030618BF0126E77A7FB9EE
:10B51000002D40F0C182BBF1030F00F06C86BBF13F
:10B52000010F00F029830FB0BDEC028BBDE8F08F56
:10B5300015B1002E00F0B38241F6A815002666551D
:10B540006368012B00F04C86236A6569E069A6698F
:10B550000D930C93C71A0A952B440B96207A9FEDF6
:10B56000DA7ADFEDDA7A002814BFB0EE678AB0EE3F
:10B57000478AB7F5005FC0F0068503F5005EA7F5C2
:10B580000057C4F8EC3FF1460026C3EB090A43F824
:10B59000046BAAF104019945C1F382023AD01AB3AF
:10B5A000012A1BD0022A15D0032A10D0042A0BD05E
:10B5B000052A06D0062A18BF43F8046B002043F87A
:10B5C000040B002543F8045B002643F8046B0021BC
:10B5D00043F8041B4FF0000B43F804BB4FF0000C82
:10B5E00043F804CB994515D09A464FF000084AF825
:10B5F000048B203343F81C8CCAF8048043F8148C65
:10B6000043F8108C43F80C8C43F8088C43F8048CF6
:10B610009945E9D1002304F58059B7F5004FC4F8E6
:10B62000E83F09F11405C0F0A7840EF50048A7F51E
:10B630000047C5F804E04146F34600262BF8026BAC
:10B64000CEEB0102901E5945C0F342033CD02BB310
:10B65000012B1ED0022B18D0032B12D0042B0CD0A0
:10B66000052B06D0062B18BF2BF8026B00262BF8F3
:10B67000026B4FF0000C2BF802CB4FF0000A2BF8B6
:10B6800002AB4FF000092BF8029B4FF0000E2BF895
:10B6900002EB00262BF8026B594515D058460022C4
:10B6A00020F8022B0BF1100B2BF80E2C42802BF8FC
:10B6B0000A2C2BF8082C2BF8062C2BF8042C2BF832
:10B6C000022C59451646E9D104F5815341F2140084
:10B6D0009E4604F580522650DFF8FC917C49596063
:10B6E0001846CEF80890DFF8F4C1C2F81C904FF06D
:10B6F0007C5EDFF8ECB1DFF8ECA1DFF8EC91C2F88A
:10B7000020E0B7F5C36FC0F814B0C0F818C0C3F894
:10B7100010E0C3F80CC0C5F838A0C5F8349004F1A7
:10B7200024052846C0F0178404F58256414608F5E2
:10B730000272FFF7B1FC06F1180C08F5005BCCF8BB
:10B7400004804346002023F8020BC8EB0B02911E35
:10B750009B45C1F342073AD027B3012F1DD0022FDA
:10B7600017D0032F11D0042F0BD0052F06D0062F92
:10B7700018BF23F8020B002023F8020B002623F841
:10B78000026B4FF0000E23F802EB4FF0000923F894
:10B79000029B4FF0000823F8028B002023F8020BD5
:10B7A0009B4514D01946002221F8022B103323F8B0
:10B7B0000E2C4A8023F80A2C23F8082C23F8062C98
:10B7C00023F8042C23F8022C9B451046EAD194F868
:10B7D00000B0404E41F258030027BBF1030FE05088
:10B7E000CCF82870CCF8306000F0E3846068002862
:10B7F00040F3CB8604F58A5C04F5AC5A0026207A27
:10B800000CF10C020AF10407B4460DF128090DF100
:10B810003008002800F04E8159F8061058F806004C
:10B8200042F8481CA0F1080A084400234FF0000B1E
:10B83000814242F838AC42F8441C42F840BC42F81D
:10B84000343C42F82C3C00F0AA830B464FF07F0BAF
:10B8500003F801BB6FEA010E864483420EF0070A2B
:10B8600061D0BAF1000F49D0BAF1010F25D0BAF179
:10B87000020F1ED0BAF1030F18D0BAF1040F11D085
:10B88000BAF1050F0AD0BAF1060F04D04FF07F0EBF
:10B89000013381F801E07F2103F8011B4FF07F0A9B
:10B8A00003F801AB4FF07F0E03F801EB7F2103F8A3
:10B8B000011B4FF07F0A03F801AB4FF07F0E03F836
:10B8C00001EB83422FD019E00000FA4600007A46CF
:10B8D000BDFFFF3F00E0FF44BDFFFF3EE7FFFF3E2F
:10B8E000E7FFFF3F3333333F0000203F0000804439
:10B8F0000000000000008047000000389A467F21C9
:10B900000AF8011B083303F8071C8AF8011003F832
:10B91000051C03F8041C03F8031C03F8021C03F8BD
:10B92000011C8342EAD1207A42F8307C61680CF134
:10B93000010C614507F5007706F1040602F12002CB
:10B940003FF767AF01290CBF94F800B094F800B03E
:10B95000034608BF2822084618BF2022002B0CBF30
:10B960001021172101FB02F73E1106EB46084FEAB2
:10B97000A8024FF07E53E6642265E36504F1840E6D
:10B980000027F0EE000AF14610EE901A00228EF821
:10B990001020083749F8301B402F89F81020CEEDD1
:10B9A0000C0A8EF87020CEED180A8EF8A020CEED8D
:10B9B000240A8EF8D020CEED300A8EF80021CEED8C
:10B9C0003C0A8EF83021CEED480A8EF86021CEED8B
:10B9D000540A0EF5C07ED4D104F6246904F62C680E
:10B9E00004F6286C1FED3F1AC4F8E85D002301211E
:10B9F00004F63467F7EE001A6065C4F8200EA365FC
:10BA000084ED181A04F6446AC9F8003004F6486553
:10BA1000C8F8003004F56569CCF8003004F65468C5
:10BA200084F8001E84F8181E84F8022E84F8012E73
:10BA300084F81A2E84F8192E04F6586CC7ED001AF3
:10BA400084F8381E04F65C614FF400664FF07C5EAB
:10BA500004F66467C4F83C2EC4F8402EC4F81C6E8B
:10BA6000CAF80030C5F800E0C4F84C2EC4F8700ED7
:10BA7000C9F80030C8F80030CCF800300B60C4F8CA
:10BA8000782EC4F87C2E84F86C2EC7ED001A0021A5
:10BA900084F801B0E1723EE5002E40F05D8341F68E
:10BAA000A8120021A154002F7FF44AAD002D7FF48D
:10BAB00047AD30E558F8061059F806301FED740A06
:10BAC000D0604FEA510E03EB4E0AAEF1080B53451E
:10BAD0005061C2F808B042F8083C42F8043C82EDDC
:10BAE000000A46D01946C3EB0A0B21F8020BABF152
:10BAF000020E8A45CEF342003BD030B301281ED05F
:10BB0000022819D0032814D004280ED0052809D003
:10BB1000062804D04FF0000E0231A3F802E0002303
:10BB200021F8023B002021F8020B4FF0000E21F813
:10BB300002EB002321F8023B002021F8020B4FF01A
:10BB4000000E21F802EB8A4513D00846002320F8A6
:10BB5000023B103121F80E3C438021F80A3C21F8C9
:10BB6000083C21F8063C21F8043C21F8023C8A45B7
:10BB7000EBD117610020D9E6277A002F40F011821F
:10BB800094F8380E002840F08A81D4F81C2E02EE7A
:10BB9000102ABAEEEA2AF7EE002AB4EEE22AF1EE13
:10BBA00010FA00F1EE84B0EE003AB4EEC32AF1EEE2
:10BBB00010FA00F326835FEDB16A62EE263A04F6CE
:10BBC000346B9BED004AD4F8201EF7EE044AB4EE25
:10BBD000E44AF1EE10FA48BFB0EE644A24EE235A6C
:10BBE0000129FDEEC55A15EE903A00F0BD83D4F858
:10BBF000E86DD4F83C9E31680696B9F1000F0791C4
:10BC0000C0F2DC840025002A059540F3988004F5F5
:10BC10008A5AD64604F58B580EF1140B08F1040E1F
:10BC200029462E462F460AF1040ACDF810E008F105
:10BC300014089C46089403E0BA4201F1010160DD5A
:10BC4000DBF80040DAF800301FEDD56A09EB070099
:10BC5000A042ACBFC4EB0004044603EB440E33F92E
:10BC60001440BEF90230B7B208EE907A08EE103AEE
:10BC7000049FD8F8003007EE904A98423C68A8BF6D
:10BC8000C3EB000004EB400334F91000B3F90240A9
:10BC9000F8EEE70AB8EEC80A02EE100A02EE904A81
:10BCA000FBEEC88AB8EEC23A30EE601AF8EEE26AED
:10BCB000E8EE810A01F01F0E664476EEC33A60EEAC
:10BCC000861AA8EEA33A3714E3EE061AF5EEC01A68
:10BCD000F1EE10FAD4BF2B4645F00103BEF11F0F61
:10BCE0004FEA4305A8D1DDF814E0079C48090EF19E
:10BCF000200EBA42CDF814E044F8203001F10101E1
:10BD00009EDC11F01F006346089C16D0059F079E1D
:10BD100005E0013111F01F004FEA45050CD01F2846
:10BD2000F7D14A09013111F01F0046F8225007F1FE
:10BD300020074FEA4505F2D10597D4F81C2ED4F818
:10BD4000405E069EB5EB020B48BF41F254114FEA2C
:10BD500042000490776848BF6158049E07974CBF23
:10BD600059445946002E40F3908004F58A5A04F550
:10BD70008B580022D146C3461046154616460AF196
:10BD8000040A09F1140908F104080BF1140B8C469C
:10BD9000089404E0049CB44202F101025DDDD9F88C
:10BDA0000070DAF80040DFEDB88A0CEB06011FFAEC
:10BDB00085FEB94204EE10EAACBFC7EB010E8E4619
:10BDC00004EB4E0734F91E60B7F90240DBF800704F
:10BDD00005EE104AB942D8F80040A8BFC7EB0101F0
:10BDE00004EB410704EE906A34F91110B7F90240F0
:10BDF000F8EEE47AF8EEC55A07EE101A00EE904A13
:10BE0000BBEEC84AB8EEC71A35EEE76AF8EEE01A9C
:10BE1000E4EE067A02F01F0E1D4431EEC12A27EE31
:10BE2000A80AA4EE021A2E14A1EE280AB5EEC00A42
:10BE3000F1EE10FAD4BF074640F00107BEF11F0F24
:10BE40004FEA4700A6D1049CDDF81CE05109B4423A
:10BE50004EF8217002F10102A1DC12F01F06089CCD
:10BE60000DD0079D1F2E08BF560902F1010208BF21
:10BE700045F8260012F01F064FEA4000F2D1D4F830
:10BE80001C2ED4F8401EC2EB010B069805990BEB53
:10BE900062024FF00109FFF7E1F984F8389E636B05
:10BEA0004FEAA30818F1100F04F124043FF43BAB50
:10BEB000204608F10F06FFF7FBF818F10F0506F012
:10BEC00007073FF430AB57B3012F22D0022F1CD00D
:10BED000032F16D0042F10D0052F0AD0062F04D020
:10BEE0002046FFF7E5F808F10E052046FFF7E0F8D9
:10BEF000013D2046FFF7DCF8013D2046FFF7D8F86A
:10BF0000013D2046FFF7D4F8013D2046FFF7D0F869
:10BF1000013D2046FFF7CCF8013D3FF404AB20463D
:10BF2000FFF7C6F82046FFF7C3F82046FFF7C0F832
:10BF30002046FFF7BDF82046FFF7BAF82046FFF786
:10BF4000B7F82046FFF7B4F82046FFF7B1F8083DF0
:10BF5000E5D1FFF7E8BA04F5825700214FF40272E9
:10BF6000FFF79AF807F1180C4FF4005BCCF8046067
:10BF70004FF00008FFF7E5BBF0466B609E464FF4BC
:10BF80000041FFF759BB00259E46C4F8EC5F2B46E5
:10BF90004FF40059FFF7F8BA0026FFF7B7BA0120AF
:10BFA000C2E494F8383E002B7FF479AFD4F81C2E0D
:10BFB00001EE902AFAEEEA1AB7EE002AF4EEC21A5F
:10BFC000F1EE10FA00F12081F0EE002AF4EEE21A10
:10BFD000F1EE10FA00F3F8829FED293A61EE833A10
:10BFE00004F6346898ED004AD4F8207EF7EE046A2F
:10BFF000B4EEE64AF1EE10FA48BFB0EE664A64EEDF
:10C00000234A012FBDEEE45A15EE103A00F0DF820C
:10C01000D4F8E85DD4F83CBE28680795BBF1000F62
:10C020000890C0F2C683002A4FF0000140F3F1806F
:10C0300004F58857049704F5895ADDF8109006979F
:10C04000CDF814A009F108080AF10805DDF81890E8
:10C05000DDF814A0CDF8108009F114080AF11409D4
:10C06000CDF814900994DFF81CE0CDF8188008464C
:10C070000E460F468C46994692462C460BE000BF72
:10C08000000080475000002000000038E24500F129
:10C09000010040F37E82069A049D13682A681FED12
:10C0A000066A0BEB0C059D42ACBFC3EB05032B46A8
:10C0B00002EB0308D35C98F80120DDF814801FFA26
:10C0C00087FC08EE90CA3EF913C03EF91230D8F84A
:10C0D000002005EE903A95422368A8BFC2EB050503
:10C0E0005A195D5D52783EF915303EF9125008EE4E
:10C0F00010CA01EE903AF8EEC87AB8EEE57A02EE90
:10C10000105AFBEEC88AF8EEE12A77EE670AB8EE1D
:10C11000C23AE8EEA07A00F01F084F4473EE623A8C
:10C1200027EE861AE8EEA32A4FEA274CA2EE861ADB
:10C13000B5EEC01AF1EE10FAD4BF334646F0010353
:10C14000B8F11F0F4FEA4306A0D14FEA5018089AE2
:10C15000203142F8283099E72046FFF78DF841F268
:10C160005C01635803F500579846002228F8022B1B
:10C17000103323F80E2CA8F8022023F80A2C23F8F9
:10C18000082C23F8062C23F8042C23F8022C9F42B9
:10C19000EAD141F2580094F800B0E77A225084F8CE
:10C1A00001B0002E3FF47BAC002F7FF4C5A9FFF750
:10C1B000B2B9227A63680193002A0CBF10260826C0
:10C1C0004FF48055B0EE480A0296009504F5686079
:10C1D0000AA90CAAD14B0EF0F3FB94F800B056E478
:10C1E00000236169E2690B930D930A910C92A36994
:10C1F000276AFFF7B3B904F568600EF0BBFCFFF7E0
:10C2000092B9DFEDC93ADAE4DFEDC63AE8E6D4F8F0
:10C210001C2ED4F8405E079FAD1A7868069048BF80
:10C2200041F214104FEA420C4ABF205828464019E8
:10C23000BCF1000F40F38F8004F58956059604F594
:10C24000885BDDF814800496D94609F1140A08F1D8
:10C250000809DDF81080CDF81490002208F11409C7
:10C26000CDF810900994AE4F0891154616469646A3
:10C270000BF1080B98468146644604E0744502F1D0
:10C28000010240F36981DAF80030DBF800109FED1D
:10C29000A75A09EB0E009842ACBFC3EB000303465C
:10C2A00001EB030CCB5C9CF80110DDF810C01FFA09
:10C2B00086FE04EE10EA37F913E037F91130DCF8A6
:10C2C000001006EE90EADDF814E0884204EE903AA1
:10C2D000DEF80030A8BFC1EB00001918185C4978DF
:10C2E00037F9103037F91100B8EEE66A07EE103A68
:10C2F000B8EEE48A07EE900ABBEEC84AF8EEC70A29
:10C3000078EE465AB8EEE71AA4EE256A02F01F0C42
:10C31000464471EE601A26EE050AE4EE210A4FEA61
:10C32000264EA0EE850AB5EEC00AF1EE10FAD4BF93
:10C330002B4645F00103BCF11F0F4FEA43059DD189
:10C340004FEA521C069941F82C3097E7D4F81C2E7E
:10C35000D4F8407EBD1A079805EB6202FEF77EFF17
:10C36000012184F8381E9AE5D4F8E87DD4F83C9E83
:10C370003D680697B9F1000F0495C0F21F82002AAC
:10C3800040F32882002104F58A5C0CF1040B0CF1C7
:10C39000140A05910D460E460F469C46904603E052
:10C3A000B84501F1010140DDDAF80020DBF800308A
:10C3B000DFED5E2A09EB07009042A8BFC2EB000048
:10C3C00003EB400233F91030B2F9020003EE903A69
:10C3D00006EE900AB7B203EE107AB8EEE34AF8EE32
:10C3E000E64ABBEEC83A34EEC45A01F01F0EA3EE83
:10C3F000054A6644371464EE228AF5EEC08AF1EEEF
:10C4000010FAD4BF2B4645F00103BEF11F0F4FEACF
:10C410004305C5D1DDF814E004984A090EF1200E59
:10C42000CDF814E040F82230BAE711F01F0263465D
:10C4300010D0059805E0013111F01F024FEA4505C3
:10C4400007D01F2AF7D14F09049E203046F8275005
:10C45000F1E70590D4F81C2ED4F8407E0698B7EB8F
:10C46000020B48BF41F254114FEA420948BF6158DC
:10C47000466804964CBF0BEB010ADA46B9F1000F8F
:10C480007FF703AD002204F58A5110461546164683
:10C4900001F1040B01F114089C4603E0B14502F1DF
:10C4A000010245DDD8F80030DBF800709FED1F8AEF
:10C4B0000AEB06019942A8BFC3EB010107EB410358
:10C4C00037F91170B3F9021007EE907A06EE101AE0
:10C4D000AEB205EE906AB8EEE70AB8EEC67AFBEEA9
:10C4E000C85A77EE400A02F01F0EA5EEA00A654476
:10C4F0002E1420EE081AB5EEC01AF1EE10FAD4BFD1
:10C50000034640F00103BEF11F0F4FEA4300C5D1BF
:10C510004FEA521E049F47F82E30BFE784D8010827
:10C520005000002000008047000000480000003854
:10C5300012F01F06634607D1A1E4013212F01F0674
:10C540004FEA40003FF49BAC1F2EF6D15509DDF8B1
:10C5500010A04AF82500F0E712F01F0043460899A2
:10C56000099C07D1F2E6013212F01F004FEA45059F
:10C570003FF4ECAE1F28F6D15709069E46F8275027
:10C58000F1E75FED183AFFF71ABB237A2022FFF795
:10C59000E5B910F01F024B46099C07D137E6013080
:10C5A00010F01F024FEA46063FF431AE1F2AF6D1C3
:10C5B0004509089F203147F82560F0E741F25415FE
:10C5C00061598944FFF71EBB5FED293A08E5D4F8AD
:10C5D000E81DD4F83CCE0F680791BCF1000F059719
:10C5E00003DA41F21416A559AC44002A4FF00001B9
:10C5F00055DD04F5885BDA4608460D460F468E4643
:10C600000BF1080B0AF1140A9946049404E07245F0
:10C6100000F1010040F3B780DAF80030DBF8006089
:10C620001FED3E2A0CEB0E049C42A8BFC3EB040492
:10C630003319345D5B786A4E36F9144036F913309D
:10C6400003EE104A03EE903A1FFA87FE02EE90EADC
:10C65000B8EEC34AF8EEE36AFBEEC82A76EEC44AA7
:10C6600000F01F08A2EEA44A4F444FEA274E24EEE2
:10C67000025AB5EEC05AF1EE10FAD4BF2E4645F07C
:10C680000106B8F11F0F4FEA4605C0D14409DDF895
:10C690001480203148F82460B9E7D4F81C2ED4F86F
:10C6A000405E079E570070680690AD1A059700F12E
:10C6B0008B800495059E002E7FF74DAE002204F579
:10C6C000885A0AF1080C0AF1140BDFF8148110469D
:10C6D0001646174699468A4604E0059BBB4202F17E
:10C6E00001023CDD049DDBF80010DCF80030DFEDDA
:10C6F0003D8A3D448D42A8BFC1EB050559195B5DDC
:10C700004D7838F9131038F9153006EE101A05EE89
:10C71000903AB7B208EE107AB8EEC60AB8EEE57AEB
:10C72000BBEEC88A77EE407A02F01F0EA8EE270A09
:10C730004E44371460EE280AF5EEC00AF1EE10FA06
:10C74000D4BF054640F00105BEF11F0F4FEA45007A
:10C75000C3D15109DDF818E04EF82150BDE712F0C1
:10C760001F054B46514607D1F0E5013212F01F0577
:10C770004FEA40003FF4EAAD1F2DF6D15709069E5F
:10C7800046F82700F1E710F01F074B46049C07D13D
:10C7900083E7013010F01F074FEA45053FF47DAFF6
:10C7A0001F2FF6D14209DDF814C020314CF8225079
:10C7B000EFE741F21416A1598B4434E441F25418C6
:10C7C00054F808108944DAE541F21416A0592F18DC
:10C7D00004976FE74FF0000BCDF814B03CE600BFB4
:10C7E00050000020000000382DE9F04F8FB000F518
:10C7F00003530093009D46687C4A029205F11C0792
:10C800000446009701200C238B46002E009960728D
:10C810000491039340F3D08004EB86087448D8F861
:10C82000182065690692012E0590079503DDA7691A
:10C83000089009920A9705AB06EB4609019303EBB2
:10C8400089060DF1080ACAEB06016A4E881006FB3C
:10C8500000F8B8F1000F00F08E80029ADBF800506B
:10C86000AA4240F08380039FDBF804309F427DD1D1
:10C870005546002628E004EB820E5D49DEF81830AC
:10C8800060690693012A0591079003D0A069089179
:10C8900009930A9002EB4208019A02EB880CCAEB5A
:10C8A0000C01544B881003FB00F80136464562D258
:10C8B00059F82700EF68874258D12F69DBF8043018
:10C8C0009F4205F10C0551D10BF108093A46494642
:10C8D000A868BF08FBF75CFC09EB870B002EE4D1CE
:10C8E00004F5035C21789CF825800CF1250ECA1E06
:10C8F000504250EB020318F1000118BF01218B4296
:10C9000004D000290CBF00220322227004F5035C2E
:10C910000CF1240E9EF80010E07A11F0010F0CBF0C
:10C920000223012310B962689A4216D04A08636054
:10C930000CBF002101210120E07221722046FEF788
:10C94000CFFD6268294B009904910C20002A0293C4
:10C95000039090DCDDF804C0A1E74A0894F8088051
:10C960000CBF0021012181EA0800E5E70020607288
:10C970000FB0BDE8F08F257A0DBB42F2DC0741F223
:10C980005819E25944F8092004F58B5A42F2E003A1
:10C99000CAF8005041F2781B04F58C5CE15844F869
:10C9A0000B10CCF8005041F6A8110120002660546D
:10C9B00066720FB0BDE8F08F05AE019641E742F216
:10C9C000DC0041F218162558A55104F589580027B6
:10C9D00042F2E003C8F8007041F2381904F58A5AAF
:10C9E000E25844F80920CAF80070DCE773746174F7
:10C9F00062756666ABAAAAAA2DE9F00FD2ED0A7A93
:10CA000083460068DBED055A2DED028B27EEA77AF1
:10CA100002EE900A90B0B8EEE23A27EE270A0E92A4
:10CA200023EE003A92F8342009938A46C5EE833A01
:10CA3000002A42F06981BE4BCBF8183083EE255AAC
:10CA4000002843F36B800BF12C073E7F411E00242E
:10CA500001F007050D94002E02F05A810122824256
:10CA600007F1300300F08880002D38D095422DD09A
:10CA7000022D25D0032D1DD0042D15D0052D0DD050
:10CA8000062D05D01F7F002F02F082810132303346
:10CA9000197F002902F07381013230331F7F002F8C
:10CAA00002F06481013230331D7F002D02F0558188
:10CAB000013230331E7F002E02F0468101323033C6
:10CAC0001C7F002C02F03781013230331D7F002D96
:10CAD00002F028810132824203F130034CD00D99DB
:10CAE0001F7F27B90BEB810C0131CCF81C2C3033A4
:10CAF0001E7F013226B90BEB81050131C5F81C2CD4
:10CB000093F84C40571C24B90BEB81090131C9F84B
:10CB10001C7C93F87C60951C26B90BEB810C0131D1
:10CB2000CCF81C5C93F8AC40D71C24B90BEB810902
:10CB30000131C9F81C7C93F8DC60151D26B90BEB9C
:10CB4000810C0131CCF81C5C93F80C41571D24B9C1
:10CB50000BEB81090131C9F81C7C93F83C61951DF0
:10CB600026B90BEB810C0131CCF81C5C07328242F8
:10CB700003F5A873B4D10D910E9F1A9C97F8252048
:10CB8000002C7FD06B4E06903168DDF868800D98E0
:10CB900000233C46684F694DDFED690ADBED066A0C
:10CBA00007FB01F94D4401EE105AB8EE416AF7EE69
:10CBB000001A26EE202A36EEA14AB4EEC25AF1EE51
:10CBC00010FA8BED064A40F3FA81DBED034AB4EE2E
:10CBD000E43AF1EE10FA40F3F281002840F0FB81D4
:10CBE000013343452946D5D1099E1A9C514A0D90DF
:10CBF00006EBC407BE420698116043D04FF0000C0C
:10CC0000B91B46F804CB0D1FB742C5F3820339D0D8
:10CC10001BB3012B1CD0022B17D0032B12D0042BDB
:10CC20000DD0052B07D0062B1CBF002346F8043B74
:10CC3000002446F8044B4FF0000946F8049B0022FC
:10CC400046F8042B002146F8041B002546F8045B37
:10CC5000002346F8043BB74214D0B44600244CF8F5
:10CC6000044B203646F81C4CCCF8044046F8144CD3
:10CC700046F8104C46F80C4C46F8084C46F8044C64
:10CC8000B742EAD10BF61C5600280A9640F39C8363
:10CC90000BF148070BF138090BF13C0C0022CDF8E1
:10CCA00004B0CDF820B00297CDF80C90CDF81CC0A0
:10CCB0000692D34603994D7C022D00F0DE84012DAF
:10CCC00000F08F86089B019C9E6894F84870012EA6
:10CCD00000F0F687002F00F05A83E06A002802F087
:10CCE000F3851A99002902F01387421E12F00704F7
:10CCF0000B4609994DD01A9B099D013B104605F141
:10CD0000080102F1FF327DD0012C42D0022C39D033
:10CD1000032C30D0042C27D0052C1ED0062C15D087
:10CD2000013B104601F1080102F1FF326AD00DE02B
:10CD300000007AC4500200200D6619005FF36E3CBB
:10CD40000000802F0000004300008043013B10469C
:10CD500001F1080102F1FF3254D0013B104601F10C
:10CD6000080102F1FF324DD0013B104601F10801EC
:10CD700002F1FF3246D0013B104601F1080102F1F9
:10CD8000FF323FD0013B104601F1080102F1FF32B2
:10CD900038D00831013BD71EA2F1040CA2F10508DE
:10CDA000A2F10609A2F1070A0D461C461046002A08
:10CDB00001F04B82561E083A23B3013B304601F185
:10CDC000080106F1FF361DD0A31E304605F1100103
:10CDD00018D0E31E384605F1180113D0231F604612
:10CDE00005F120010ED0631F404605F1280109D04E
:10CDF000A31F484605F1300104D0E31F05F13801B7
:10CE00005046C6D1DDF804C04FF0FF36CCF82C00F8
:10CE1000DDF8089019ED063AB5EE403AF1EE10FA59
:10CE200041F03981DDF81CA0039C9AED002AD4ED75
:10CE3000007A002B01F0AF8016F0030730460A9A03
:10CE400053D0B7EE008AF4EEC87AF1EE10FAAABF1A
:10CE5000B0EE006AB0EE676A36EE676A77EE827A05
:10CE6000F0EE004AF4EEE47AF1EE10FA81F29180ED
:10CE70000A9A06F1FF3C012FA2EC016A604634D009
:10CE8000022F18D0B7EE003AF4EEC37AF1EE10FAA2
:10CE9000B4BFF0EE674A74EEE74A77EE827AB0EEFE
:10CEA000006AF4EEC67AF1EE10FA81F27280E2ECDA
:10CEB000014A0CF1FF30F7EE003AF4EEE37AF1EEBE
:10CEC00010FAAABFB0EE006AB0EE676A36EE676A83
:10CED00077EE827AB0EE005AF4EEC57AF1EE10FAEF
:10CEE00081F25780A2EC016A0138F7EE006AF4EE95
:10CEF000E67AF1EE10FAA6BFB0EE006A36EE676A87
:10CF0000B0EE676A77EE827AB0EE000AF4EEC07A8D
:10CF1000F1EE10FA81F23D80043202ED016A914691
:10CF2000451E002801F03780B7EE001AF4EEC17AF2
:10CF3000F1EE10FAC1F2528370EE670A77EE827A50
:10CF4000B0EE006AF4EEC67AF1EE10FA81F22180BA
:10CF5000F7EE005AF4EEE57AF1EE10FAB4BFB0EE57
:10CF6000676A36EE676A77EE827AB0EE004AF4EED0
:10CF7000C47A4A46F1EE10FAE2EC010A81F2098025
:10CF8000F7EE005AF4EEE57AF1EE10FAB4BFB0EE27
:10CF9000674A34EE674A09F1080277EE827A02EDB9
:10CFA000016AB0EE006AF4EEC67AF1EE10FA80F291
:10CFB000F08709F10C0202ED014AE81E95E7F4EE54
:10CFC000C43AF1EE10FA7FF608AE00283FF408AE3E
:10CFD000002A3FF405AE94ED028A5FEDA68A5FED6C
:10CFE000A66A94ED010AA24EA24F019778EE287A24
:10CFF00038EEC87AFDEEE72ABDEEC74AF8EEE24AFF
:10D0000020EE262A37EEE48AF8EEC48A06FB05FCF9
:10D01000019E994F99499A4A9FED9A1A94ED066A92
:10D02000D4ED000AD4ED0B1AFDEEC27A68EE264A62
:10D0300037EE687A6644FDEEE48A00EE106A27EE69
:10D04000267A019617EE906A4FEA860918EE906AE2
:10D05000FDEEC78A013809EB070CB8EE400A01EB78
:10D06000860918EE907A12EE906A0BEB8005FEEEC0
:10D07000004AB8EEE78AE0EE014A01EB8701D5F8F5
:10D080001C5CDCED007A9CED011A99ED000A02EBC4
:10D09000860C14EE107ADBF80460DCED002A02EB5B
:10D0A000870905EB4505B042ACBF02270127DAF836
:10D0B0001420DBF80860029732EE482A31EE671A36
:10D0C0000BEB0515B6EE004AC8EB020C1835F0EE76
:10D0D000448A012E91ED008ADAF81010E2EE017A0E
:10D0E00005F104029C4422EE807AE6EE248A99ED52
:10D0F000002A01F07782F4EEC48AF1EE10FA41F1D1
:10D10000B38078EEA86AB7EE000AF7EE008AB4EEB4
:10D11000E87A04EE101AF1EE10FAF8EEC44A0EDDC9
:10D12000B5EE006A22EE088A24EE862A28EE021A5C
:10D13000F4EE417AF1EE10FAC8BFF0EE417ADFED7D
:10D14000528A9FED524A1361FDEEE72A74EEA84A17
:10D1500012EE906AE7EE674A26F00107576006EE86
:10D16000107AB8EEC68AB0EE002A74EEE74A82EE74
:10D17000088A002760EEA40A27EE041AE7EE270AC1
:10D18000B6EE004ABDEEE06ABCEEC17A16EE109A29
:10D19000C9EB0C060E4496FBF1FCF4EEC41A01FB3D
:10D1A0001C61F1EE10FA6960C2ED078A82ED088A0F
:10D1B00082ED037A976081F24D80DFED3B2AC2ED6C
:10D1C000058A71EEA21AC4EE218AC2ED068A77EEB4
:10D1D000E57ADFED2F4A029F82ED090AE7EEA45AB5
:10D1E000013301254FF00009434582F82D70C2ED4F
:10D1F0000A6A82F82C500199CBED055A4FF00002D3
:10D20000CBF818907FF4C6ACEEE42249396002985E
:10D2100040ED047A019E019C029B0199B56AE76981
:10D2200053ED028A53ED011A059504974B6A002AC3
:10D2300000F0A9800A9A089892ED002AFFEE006A91
:10D24000B4EE662AF1EE10FA07EB234700F55269B7
:10D2500002F00482DBF810A0DBF80460CDF82CB0FB
:10D260000D4808F1080108F104020025E34625E015
:10D270000D6619005FF36E3CD07F02083C8D0208FA
:10D28000388902080000802F00000000000080475D
:10D29000CDCCCC3D000080BF500000200000003805
:10D2A0006666663FCDCC4C3E0AD7233CB9EC012ADA
:10D2B000B4EE412AF1EE10FA02F0CE819CB257454D
:10D2C00006EE104A059C5FED0B0A51ED022AA8BF3D
:10D2D000CAEB07072344F41916F8078094F801C035
:10D2E000A77830F91CC030F9177030F91880E4784D
:10D2F00005EE107A00EE10CA08EE108AB8EEC57A74
:10D30000F8EEC03AB8EEC84A73EEC77A30F9147036
:10D31000049C77EE444AF6EE005AB0EE678A03EEBC
:10D32000107AA4EEA58A5D4504EB2347F8EEC36AA4
:10D3300037EE883A36EEE30ABBEEC86AA0EE253A2D
:10D3400001F1080102F10802BFEE001A38EE035A9B
:10D3500005F1010596EE035A26EE057AA4EEA57AAC
:10D36000E6EE073A63EEA00A22EE202AE8EE822AD1
:10D3700041ED042A52ED022AE1EE822A42ED022A10
:10D3800094D1DDF82CB0019C089F63623868DDF809
:10D390001890DDF804C00299039D079E09F1010A67
:10D3A00001F130020CF1300905F1300306F13004CF
:10D3B0005045CDF818A0CDF804900292039307943D
:10D3C0003FF778ACDDF820B00D9FDBED031A5FED81
:10D3D0004C5A1FED4C1AC01B06EE100AF8EEC68A16
:10D3E000B0EE004A78EEE13AF5EEC03AF1EE10FA0E
:10D3F000C8BFB0EE651AE1EE231AF4EEC41AF1EEDE
:10D4000010FACBED031A41F37B84F7EE007A71EE4C
:10D41000E76AB6EE008A16EE901A4A08C2F1BE48D4
:10D4200008F55D1A0AF5CE5C0CF11F0503EE105AE3
:10D4300026EE880AB7EE087A23EE005AA3EE457A64
:10D4400063EE074A0E9BB7EE006AD3ED0B0AB0EE0F
:10D45000002AF0EE462AE0EE822AF4EEC62AF1EE29
:10D4600010FA01F11A87F4EEC22AF1EE10FA41F334
:10D4700098840E9E1A9DD6ED0A8AF7EE001AE8EE01
:10D48000861A64EEA15A002D00F0F1809BED041A7B
:10D490005FED7B3A099F35EEC14A07F10800A4EE23
:10D4A000231A07F1040A01216C1E8BED041AD7ED33
:10D4B000004A64EE817AA94240ED027ADAED006A10
:10D4C0009BED048A26EE880A07F1100204F0030699
:10D4D0008AED000A07F10C0900F0C980002E5AD02D
:10D4E000012E38D0022E1AD09BED043A099D35EE5C
:10D4F000C35A0221A5EE233A08328BED043A12ED0D
:10D50000047A67EE030A42ED040A99ED002ADBED86
:10D51000042A22EE226A89ED006A05F11409DBED86
:10D52000048A5FED9F1A35EEE81A0131E1EE218A97
:10D530000832CBED048A52ED043A23EEA84A02EDFC
:10D54000044AD9ED004ADBED047A64EEA76A16EED0
:10D55000907A49F8087B9BED048A1FEDAD0A1A9872
:10D5600035EEC83A0131A3EE008A814202F1080289
:10D570008BED048A12ED045A25EE087A02ED047A46
:10D58000D9ED000A9BED042A60EE822A12EE904A41
:10D5900049F8084B6BD01A9BDBED048A5FEDBE1A8D
:10D5A00035EEE86AC846E6EE218A154605F1080C14
:10D5B0000CF10800CBED048A12ED021A61EE283A54
:10D5C00002F1180642ED023ADBED044A99ED004AF9
:10D5D00064EE247A043117EE907A48F8087BDBED8C
:10D5E000046A35EEE68A9942E8EE216A02F12002E9
:10D5F00009F12009CBED046A95ED000A20EE263AE8
:10D600000CED023A19ED065A9BED047A65EE070A15
:10D6100049ED060A9BED042A75EEC22AA2EEA12A64
:10D620008BED042ADCED008A28EE826A00ED026AA6
:10D6300098ED021ADBED043A21EE234A88ED024A06
:10D64000DBED044A75EEE47AE7EEA14ACBED044A3D
:10D6500056ED026A26EEA48A06ED028A19ED020A48
:10D660009BED043A20EE035A09ED025A94D110B012
:10D67000BDEC028BBDE8F00F7047089FBB68012B23
:10D6800000F0FE85019991F84840002C3FF47FAEF0
:10D69000CE6A002E02F046821A9F002F02F04982C5
:10D6A000721E12F007043B4609993FD01A9BDDF821
:10D6B00024C0013B10460CF1080102F1FF326ED08C
:10D6C000012C33D0022C2AD0032C21D0042C18D0CA
:10D6D000052C0FD0062C06D0013B104601F10801A5
:10D6E00002F1FF325BD0013B104601F1080102F16B
:10D6F000FF3254D0013B104601F1080102F1FF3224
:10D700004DD0013B104601F1080102F1FF3246D035
:10D71000013B104601F1080102F1FF323FD0013B0D
:10D72000104601F1080102F1FF3238D00831013B07
:10D73000D71EA2F1040CA2F10508A2F10609A2F17C
:10D74000070A0D461C461046002A01F05881561E55
:10D75000083A23B3013B304601F1080106F1FF36D8
:10D760001DD0A31E304605F1100118D0E31E384627
:10D7700005F1180113D0231F604605F120010ED0DA
:10D78000631F404605F1280109D0A31F484605F153
:10D79000300104D0E31F05F138015046C6D1019F86
:10D7A0004FF0FF3CF862CDF814C0DDF8089059ED59
:10D7B000065AF5EE405AF1EE10FA41F0458059ED67
:10D7C000038A59ED056A59ED047A002B00F03D8774
:10D7D00005980A9A10F0030771D0B7EE008AF4EEAC
:10D7E000C87AF1EE10FAA6BFF0EE005A75EEE75ACD
:10D7F000F0EE675A66EEA55AB7EE006A77EEA87AA1
:10D80000F4EE465AB0EE003AF1EE10FAF4EEC37AB6
:10D81000A8BFF0EE465AF1EE10FA80F21487059D8B
:10D820000A9A6E1E012FE2EC015A304647D0022FB1
:10D8300020D0F4EEC67AF1EE10FAACBF73EE675A60
:10D84000F0EE675A66EEA55AB7EE006A77EEA87A50
:10D85000F4EE465AF0EE003AF1EE10FAF4EEE37A06
:10D86000B8BFB0EE656AF1EE10FA80F2EC86A2EC79
:10D87000016A701EB7EE006AF4EEC67AF1EE10FA95
:10D88000A6BFF0EE005A75EEE75AF0EE675A66EE64
:10D89000A55AB7EE006A77EEA87AF4EE465AF0EE93
:10D8A000004AF1EE10FAF4EEE47AB8BFB0EE656A21
:10D8B000F1EE10FA80F2C786A2EC016A0138B7EEE9
:10D8C000005AF4EEC57AF1EE10FAA6BFF0EE005A57
:10D8D00075EEE75AF0EE675A66EEA55AB7EE006AA3
:10D8E00077EEA87AF4EE465AB0EE000AF1EE10FA9E
:10D8F000F4EEC07AA8BFF0EE465AF1EE10FA80F2CC
:10D90000A286043242ED015A924600F1FF3C002803
:10D9100000F09B86F4EEC67AF1EE10FAC1F2B28402
:10D9200070EE675A66EEA55AB7EE006A77EEA87AEF
:10D93000F4EE465AB0EE001AF1EE10FAF4EEC17AA7
:10D94000A8BFF0EE465AF1EE10FA80F27C86F4EEB3
:10D95000C67AF1EE10FA5246E2EC015AACBF71EE13
:10D96000675AF0EE675A66EEA55AB7EE006A77EE90
:10D97000A87AF4EE465AF0EE002AF1EE10FAF4EE30
:10D98000E27AA8BFF0EE465AF1EE10FA80F25B861A
:10D99000F4EEC67AF1EE10FA0AF1080242ED015AED
:10D9A000ACBF72EEE75AF0EE675A66EEA55AB7EED4
:10D9B000006A77EEA87AF4EE465AB0EE002AF1EE4D
:10D9C00010FAF4EEC27AB8BFB0EE656AF1EE10FA62
:10D9D00080F239860AF10C0202ED016AACF1030013
:10D9E0006DE7089B9D68012D01F00F80019F97F85E
:10D9F0004840002C3FF4CBACF86A002802F0A1802C
:10DA00001A9A002A02F0B180411E11F00704134651
:10DA1000099A3ED01A9B099E013B084606F108026E
:10DA200001F1FF316ED0012C33D0022C2AD0032C0F
:10DA300021D0042C18D0052C0FD0062C06D0013B89
:10DA4000084602F1080201F1FF315BD0013B0846B4
:10DA500002F1080201F1FF3154D0013B084602F106
:10DA6000080201F1FF314DD0013B084602F10802E6
:10DA700001F1FF3146D0013B084602F1080201F1F5
:10DA8000FF313FD0013B084602F1080201F1FF31AE
:10DA900038D00832013BCF1EA1F1040CA1F10508DA
:10DAA000A1F10609A1F1070A15461C4608460029FE
:10DAB00001F0D7834E1E083923B3013B304602F1F3
:10DAC000080206F1FF361DD0A31E304605F11002F4
:10DAD00018D0E31E384605F1180213D0231F604604
